:100000000C9433000C94B5010C94B5010C94B5011B
:100010000C94B5010C94B5010C94B5010C94B50188
:100020000C94B5010C94B5010C94B5010C94B50178
:100030000C94B5010C94B5010C94B5010C94B50168
:100040000C94B5010C94B5010C94B5010C94B50158
:100050000C94B50149005A006B007C008D009E0095
:10006000AF00C000D00011241FBECFE5D8E0DEBF36
:0E007000CDBF0E94A8010C949D01F894FFCF13
:10007E0001978930910508F09DC0865D9F4FFC0168
:10008E000C94AF0161E088E00E94330161E089E0E9
:10009E000E94330161E08AE00E94330161E08CE04E
:1000AE000E943301089560E088E00E94330161E010
:1000BE0089E00E94330160E08AE00E94330160E033
:1000CE008CE00E943301089561E088E00E943301C4
:1000DE0061E089E00E94330160E08AE00E94330112
:1000EE0060E08CE00E943301089560E088E00E9499
:1000FE00330160E089E00E94330161E08AE00E94F2
:10010E00330160E08CE00E943301089561E088E0E5
:10011E000E94330160E089E00E94330161E08AE0D1
:10012E000E94330160E08CE00E943301089560E08C
:10013E0088E00E94330161E089E00E94330161E0B2
:10014E008AE00E94330160E08CE00E943301089542
:10015E0061E088E00E94330161E089E00E94330192
:10016E0061E08AE00E94330160E08CE00E9433017E
:10017E00089560E088E00E94330160E089E00E940B
:10018E00330160E08AE00E94330161E08CE00E945E
:10019E00330161E088E00E94330160E089E00E9453
:1001AE00330160E08AE00E94330161E08CE00E943E
:1001BE003301089560E088E00E94330160E089E039
:1001CE000E94330160E08AE00E94330160E08CE01F
:0601DE000E9433010895A8
:1001E400982F9695969596958770913099F028F06A
:1001F4009230E9F0933041F108954AB321E030E0C0
:10020400B90102C0660F771F8A95E2F7CB01842BF0
:100214008ABB089547B321E030E0B90102C0660FFC
:10022400771F8A95E2F7CB01842B87BB089544B3EB
:1002340021E030E0B90102C0660F771F8A95E2F72A
:10024400CB01842B84BB089541B321E030E0B90194
:1002540002C0660F771F8A95E2F7CB01842B81BB1E
:020264000895FB
:10026600982F9695969596958770913099F028F0E7
:100276009230E9F0933041F108954BB321E030E03C
:10028600B90102C0660F771F8A95E2F7CB01842B6E
:100296008BBB089548B321E030E0B90102C0660F78
:1002A600771F8A95E2F7CB01842B88BB089545B367
:1002B60021E030E0B90102C0660F771F8A95E2F7A8
:1002C600CB01842B85BB089542B321E030E0B90110
:1002D60002C0660F771F8A95E2F7CB01842B82BB9B
:0202E600089579
:1002E80088E00E94F20089E00E94F2008AE00E9401
:1002F800F2008CE00E94F20083E00E94F20082E0AB
:100308000E94F2008DE00E94F2008EE00E94F2004E
:1003180061E083E00E94330161E082E00E943301E2
:1003280061E08DE00E94330161E08EE00E943301BC
:02033800089526
:10033A00EC010E94BA010E94B901CE010E94BB01E0
:06034A00CE010E94B70184
:0E0350000E94740188E090E00E943F00FBCF05
:0C035E00EE0FFF1F0590F491E02D0994B4
:04036A000C940000EF
:04036E000E943D00AC
:020372000895EC
:020374000895EA
:020376000895E8
:00000001FF
