:100000000C942A000C94D3000C94D3000C94D300CD
:100010000C94D3000C94D3000C94D3000C94D30014
:100020000C94D3000C94D3000C94D3000C94D30004
:100030000C94D3000C94D3000C94D3000C94D300F4
:100040000C94D3000C94D3000C94D3000C94D300E4
:100050000C94D30011241FBECFE5D8E0DEBFCDBF86
:0C0060000E94B8000C94C800F894FFCF78
:10006C00982F9695969596958770913099F028F0E3
:10007C009230E9F0933041F108954BB321E030E038
:10008C00B90102C0660F771F8A95E2F7CB0184276E
:10009C008BBB089548B321E030E0B90102C0660F74
:1000AC00771F8A95E2F7CB01842788BB089545B367
:1000BC0021E030E0B90102C0660F771F8A95E2F7A4
:1000CC00CB01842785BB089542B321E030E0B90110
:1000DC0002C0660F771F8A95E2F7CB01842782BB9B
:0200EC00089575
:1000EE00982F9695969596958770913099F028F061
:1000FE009230E9F0933041F108954BB321E030E0B6
:10010E00B90102C0660F771F8A95E2F7CB01842BE7
:10011E008BBB089548B321E030E0B90102C0660FF1
:10012E00771F8A95E2F7CB01842B88BB089545B3E0
:10013E0021E030E0B90102C0660F771F8A95E2F721
:10014E00CB01842B85BB089542B321E030E0B90189
:10015E0002C0660F771F8A95E2F7CB01842B82BB14
:02016E000895F2
:1001700084E00E9477002FE78AE196E021508040DA
:100180009040E1F700C0000085E00E943600F0CF0B
:10019000EC010E94D8000E94D700CE010E94D90035
:0601A000CE010E94D50013
:0401A6000C940000B5
:0401AA000E9434007B
:0201AE000895B2
:0201B0000895B0
:0201B2000895AE
:00000001FF
